{
	"contracts/wallet-storage.sol": {
		"walletStorage": {
			"abi": [
				{
					"inputs": [
						{
							"internalType": "uint256",
							"name": "_walletId",
							"type": "uint256"
						},
						{
							"internalType": "string",
							"name": "_name",
							"type": "string"
						}
					],
					"name": "createWallet",
					"outputs": [],
					"stateMutability": "nonpayable",
					"type": "function"
				},
				{
					"inputs": [
						{
							"internalType": "uint256",
							"name": "",
							"type": "uint256"
						}
					],
					"name": "idToWalletName",
					"outputs": [
						{
							"internalType": "string",
							"name": "",
							"type": "string"
						}
					],
					"stateMutability": "view",
					"type": "function"
				},
				{
					"inputs": [
						{
							"internalType": "uint256",
							"name": "",
							"type": "uint256"
						}
					],
					"name": "wallet",
					"outputs": [
						{
							"internalType": "uint256",
							"name": "walletId",
							"type": "uint256"
						},
						{
							"internalType": "string",
							"name": "name",
							"type": "string"
						}
					],
					"stateMutability": "view",
					"type": "function"
				}
			],
			"devdoc": {
				"kind": "dev",
				"methods": {},
				"version": 1
			},
			"evm": {
				"assembly": "    /* \"contracts/wallet-storage.sol\":58:413  contract walletStorage {... */\n  mstore(0x40, 0x80)\n  callvalue\n  dup1\n  iszero\n  tag_1\n  jumpi\n  0x00\n  dup1\n  revert\ntag_1:\n  pop\n  dataSize(sub_0)\n  dup1\n  dataOffset(sub_0)\n  0x00\n  codecopy\n  0x00\n  return\nstop\n\nsub_0: assembly {\n        /* \"contracts/wallet-storage.sol\":58:413  contract walletStorage {... */\n      mstore(0x40, 0x80)\n      callvalue\n      dup1\n      iszero\n      tag_1\n      jumpi\n      0x00\n      dup1\n      revert\n    tag_1:\n      pop\n      jumpi(tag_2, lt(calldatasize, 0x04))\n      shr(0xe0, calldataload(0x00))\n      dup1\n      0xa2781335\n      eq\n      tag_3\n      jumpi\n      dup1\n      0xb44e6477\n      eq\n      tag_4\n      jumpi\n      dup1\n      0xed7c5462\n      eq\n      tag_5\n      jumpi\n    tag_2:\n      0x00\n      dup1\n      revert\n        /* \"contracts/wallet-storage.sol\":160:182  Wallet[] public wallet */\n    tag_3:\n      tag_6\n      0x04\n      dup1\n      calldatasize\n      sub\n      dup2\n      add\n      swap1\n      tag_7\n      swap2\n      swap1\n      tag_8\n      jump\t// in\n    tag_7:\n      tag_9\n      jump\t// in\n    tag_6:\n      mload(0x40)\n      tag_10\n      swap3\n      swap2\n      swap1\n      tag_11\n      jump\t// in\n    tag_10:\n      mload(0x40)\n      dup1\n      swap2\n      sub\n      swap1\n      return\n        /* \"contracts/wallet-storage.sol\":188:238  mapping( uint256 => string ) public idToWalletName */\n    tag_4:\n      tag_12\n      0x04\n      dup1\n      calldatasize\n      sub\n      dup2\n      add\n      swap1\n      tag_13\n      swap2\n      swap1\n      tag_8\n      jump\t// in\n    tag_13:\n      tag_14\n      jump\t// in\n    tag_12:\n      mload(0x40)\n      tag_15\n      swap2\n      swap1\n      tag_16\n      jump\t// in\n    tag_15:\n      mload(0x40)\n      dup1\n      swap2\n      sub\n      swap1\n      return\n        /* \"contracts/wallet-storage.sol\":245:411  function createWallet(uint256 _walletId, string memory _name) public {... */\n    tag_5:\n      tag_17\n      0x04\n      dup1\n      calldatasize\n      sub\n      dup2\n      add\n      swap1\n      tag_18\n      swap2\n      swap1\n      tag_19\n      jump\t// in\n    tag_18:\n      tag_20\n      jump\t// in\n    tag_17:\n      stop\n        /* \"contracts/wallet-storage.sol\":160:182  Wallet[] public wallet */\n    tag_9:\n      0x00\n      dup2\n      dup2\n      sload\n      dup2\n      lt\n      tag_21\n      jumpi\n      0x00\n      dup1\n      revert\n    tag_21:\n      swap1\n      0x00\n      mstore\n      keccak256(0x00, 0x20)\n      swap1\n      0x02\n      mul\n      add\n      0x00\n      swap2\n      pop\n      swap1\n      pop\n      dup1\n      0x00\n      add\n      sload\n      swap1\n      dup1\n      0x01\n      add\n      dup1\n      sload\n      tag_23\n      swap1\n      tag_24\n      jump\t// in\n    tag_23:\n      dup1\n      0x1f\n      add\n      0x20\n      dup1\n      swap2\n      div\n      mul\n      0x20\n      add\n      mload(0x40)\n      swap1\n      dup2\n      add\n      0x40\n      mstore\n      dup1\n      swap3\n      swap2\n      swap1\n      dup2\n      dup2\n      mstore\n      0x20\n      add\n      dup3\n      dup1\n      sload\n      tag_25\n      swap1\n      tag_24\n      jump\t// in\n    tag_25:\n      dup1\n      iszero\n      tag_26\n      jumpi\n      dup1\n      0x1f\n      lt\n      tag_27\n      jumpi\n      0x0100\n      dup1\n      dup4\n      sload\n      div\n      mul\n      dup4\n      mstore\n      swap2\n      0x20\n      add\n      swap2\n      jump(tag_26)\n    tag_27:\n      dup3\n      add\n      swap2\n      swap1\n      0x00\n      mstore\n      keccak256(0x00, 0x20)\n      swap1\n    tag_28:\n      dup2\n      sload\n      dup2\n      mstore\n      swap1\n      0x01\n      add\n      swap1\n      0x20\n      add\n      dup1\n      dup4\n      gt\n      tag_28\n      jumpi\n      dup3\n      swap1\n      sub\n      0x1f\n      and\n      dup3\n      add\n      swap2\n    tag_26:\n      pop\n      pop\n      pop\n      pop\n      pop\n      swap1\n      pop\n      dup3\n      jump\t// out\n        /* \"contracts/wallet-storage.sol\":188:238  mapping( uint256 => string ) public idToWalletName */\n    tag_14:\n      mstore(0x20, 0x01)\n      dup1\n      0x00\n      mstore\n      keccak256(0x00, 0x40)\n      0x00\n      swap2\n      pop\n      swap1\n      pop\n      dup1\n      sload\n      tag_29\n      swap1\n      tag_24\n      jump\t// in\n    tag_29:\n      dup1\n      0x1f\n      add\n      0x20\n      dup1\n      swap2\n      div\n      mul\n      0x20\n      add\n      mload(0x40)\n      swap1\n      dup2\n      add\n      0x40\n      mstore\n      dup1\n      swap3\n      swap2\n      swap1\n      dup2\n      dup2\n      mstore\n      0x20\n      add\n      dup3\n      dup1\n      sload\n      tag_30\n      swap1\n      tag_24\n      jump\t// in\n    tag_30:\n      dup1\n      iszero\n      tag_31\n      jumpi\n      dup1\n      0x1f\n      lt\n      tag_32\n      jumpi\n      0x0100\n      dup1\n      dup4\n      sload\n      div\n      mul\n      dup4\n      mstore\n      swap2\n      0x20\n      add\n      swap2\n      jump(tag_31)\n    tag_32:\n      dup3\n      add\n      swap2\n      swap1\n      0x00\n      mstore\n      keccak256(0x00, 0x20)\n      swap1\n    tag_33:\n      dup2\n      sload\n      dup2\n      mstore\n      swap1\n      0x01\n      add\n      swap1\n      0x20\n      add\n      dup1\n      dup4\n      gt\n      tag_33\n      jumpi\n      dup3\n      swap1\n      sub\n      0x1f\n      and\n      dup3\n      add\n      swap2\n    tag_31:\n      pop\n      pop\n      pop\n      pop\n      pop\n      dup2\n      jump\t// out\n        /* \"contracts/wallet-storage.sol\":245:411  function createWallet(uint256 _walletId, string memory _name) public {... */\n    tag_20:\n        /* \"contracts/wallet-storage.sol\":324:330  wallet */\n      0x00\n        /* \"contracts/wallet-storage.sol\":336:360  Wallet(_walletId, _name) */\n      mload(0x40)\n      dup1\n      0x40\n      add\n      0x40\n      mstore\n      dup1\n        /* \"contracts/wallet-storage.sol\":343:352  _walletId */\n      dup5\n        /* \"contracts/wallet-storage.sol\":336:360  Wallet(_walletId, _name) */\n      dup2\n      mstore\n      0x20\n      add\n        /* \"contracts/wallet-storage.sol\":354:359  _name */\n      dup4\n        /* \"contracts/wallet-storage.sol\":336:360  Wallet(_walletId, _name) */\n      dup2\n      mstore\n      pop\n        /* \"contracts/wallet-storage.sol\":324:361  wallet.push(Wallet(_walletId, _name)) */\n      swap1\n      dup1\n      0x01\n      dup2\n      sload\n      add\n      dup1\n      dup3\n      sstore\n      dup1\n      swap2\n      pop\n      pop\n      0x01\n      swap1\n      sub\n      swap1\n      0x00\n      mstore\n      keccak256(0x00, 0x20)\n      swap1\n      0x02\n      mul\n      add\n      0x00\n      swap1\n      swap2\n      swap1\n      swap2\n      swap1\n      swap2\n      pop\n      0x00\n      dup3\n      add\n      mload\n      dup2\n      0x00\n      add\n      sstore\n      0x20\n      dup3\n      add\n      mload\n      dup2\n      0x01\n      add\n      swap1\n      dup2\n      tag_36\n      swap2\n      swap1\n      tag_37\n      jump\t// in\n    tag_36:\n      pop\n      pop\n      pop\n        /* \"contracts/wallet-storage.sol\":399:404  _name */\n      dup1\n        /* \"contracts/wallet-storage.sol\":371:385  idToWalletName */\n      0x01\n        /* \"contracts/wallet-storage.sol\":371:396  idToWalletName[_walletId] */\n      0x00\n        /* \"contracts/wallet-storage.sol\":386:395  _walletId */\n      dup5\n        /* \"contracts/wallet-storage.sol\":371:396  idToWalletName[_walletId] */\n      dup2\n      mstore\n      0x20\n      add\n      swap1\n      dup2\n      mstore\n      0x20\n      add\n      0x00\n      keccak256\n        /* \"contracts/wallet-storage.sol\":371:404  idToWalletName[_walletId] = _name */\n      swap1\n      dup2\n      tag_38\n      swap2\n      swap1\n      tag_37\n      jump\t// in\n    tag_38:\n      pop\n        /* \"contracts/wallet-storage.sol\":245:411  function createWallet(uint256 _walletId, string memory _name) public {... */\n      pop\n      pop\n      jump\t// out\n        /* \"#utility.yul\":7:82   */\n    tag_39:\n        /* \"#utility.yul\":40:46   */\n      0x00\n        /* \"#utility.yul\":73:75   */\n      0x40\n        /* \"#utility.yul\":67:76   */\n      mload\n        /* \"#utility.yul\":57:76   */\n      swap1\n      pop\n        /* \"#utility.yul\":7:82   */\n      swap1\n      jump\t// out\n        /* \"#utility.yul\":88:205   */\n    tag_40:\n        /* \"#utility.yul\":197:198   */\n      0x00\n        /* \"#utility.yul\":194:195   */\n      dup1\n        /* \"#utility.yul\":187:199   */\n      revert\n        /* \"#utility.yul\":211:328   */\n    tag_41:\n        /* \"#utility.yul\":320:321   */\n      0x00\n        /* \"#utility.yul\":317:318   */\n      dup1\n        /* \"#utility.yul\":310:322   */\n      revert\n        /* \"#utility.yul\":334:411   */\n    tag_42:\n        /* \"#utility.yul\":371:378   */\n      0x00\n        /* \"#utility.yul\":400:405   */\n      dup2\n        /* \"#utility.yul\":389:405   */\n      swap1\n      pop\n        /* \"#utility.yul\":334:411   */\n      swap2\n      swap1\n      pop\n      jump\t// out\n        /* \"#utility.yul\":417:539   */\n    tag_43:\n        /* \"#utility.yul\":490:514   */\n      tag_82\n        /* \"#utility.yul\":508:513   */\n      dup2\n        /* \"#utility.yul\":490:514   */\n      tag_42\n      jump\t// in\n    tag_82:\n        /* \"#utility.yul\":483:488   */\n      dup2\n        /* \"#utility.yul\":480:515   */\n      eq\n        /* \"#utility.yul\":470:533   */\n      tag_83\n      jumpi\n        /* \"#utility.yul\":529:530   */\n      0x00\n        /* \"#utility.yul\":526:527   */\n      dup1\n        /* \"#utility.yul\":519:531   */\n      revert\n        /* \"#utility.yul\":470:533   */\n    tag_83:\n        /* \"#utility.yul\":417:539   */\n      pop\n      jump\t// out\n        /* \"#utility.yul\":545:684   */\n    tag_44:\n        /* \"#utility.yul\":591:596   */\n      0x00\n        /* \"#utility.yul\":629:635   */\n      dup2\n        /* \"#utility.yul\":616:636   */\n      calldataload\n        /* \"#utility.yul\":607:636   */\n      swap1\n      pop\n        /* \"#utility.yul\":645:678   */\n      tag_85\n        /* \"#utility.yul\":672:677   */\n      dup2\n        /* \"#utility.yul\":645:678   */\n      tag_43\n      jump\t// in\n    tag_85:\n        /* \"#utility.yul\":545:684   */\n      swap3\n      swap2\n      pop\n      pop\n      jump\t// out\n        /* \"#utility.yul\":690:1019   */\n    tag_8:\n        /* \"#utility.yul\":749:755   */\n      0x00\n        /* \"#utility.yul\":798:800   */\n      0x20\n        /* \"#utility.yul\":786:795   */\n      dup3\n        /* \"#utility.yul\":777:784   */\n      dup5\n        /* \"#utility.yul\":773:796   */\n      sub\n        /* \"#utility.yul\":769:801   */\n      slt\n        /* \"#utility.yul\":766:885   */\n      iszero\n      tag_87\n      jumpi\n        /* \"#utility.yul\":804:883   */\n      tag_88\n      tag_40\n      jump\t// in\n    tag_88:\n        /* \"#utility.yul\":766:885   */\n    tag_87:\n        /* \"#utility.yul\":924:925   */\n      0x00\n        /* \"#utility.yul\":949:1002   */\n      tag_89\n        /* \"#utility.yul\":994:1001   */\n      dup5\n        /* \"#utility.yul\":985:991   */\n      dup3\n        /* \"#utility.yul\":974:983   */\n      dup6\n        /* \"#utility.yul\":970:992   */\n      add\n        /* \"#utility.yul\":949:1002   */\n      tag_44\n      jump\t// in\n    tag_89:\n        /* \"#utility.yul\":939:1002   */\n      swap2\n      pop\n        /* \"#utility.yul\":895:1012   */\n      pop\n        /* \"#utility.yul\":690:1019   */\n      swap3\n      swap2\n      pop\n      pop\n      jump\t// out\n        /* \"#utility.yul\":1025:1143   */\n    tag_45:\n        /* \"#utility.yul\":1112:1136   */\n      tag_91\n        /* \"#utility.yul\":1130:1135   */\n      dup2\n        /* \"#utility.yul\":1112:1136   */\n      tag_42\n      jump\t// in\n    tag_91:\n        /* \"#utility.yul\":1107:1110   */\n      dup3\n        /* \"#utility.yul\":1100:1137   */\n      mstore\n        /* \"#utility.yul\":1025:1143   */\n      pop\n      pop\n      jump\t// out\n        /* \"#utility.yul\":1149:1248   */\n    tag_46:\n        /* \"#utility.yul\":1201:1207   */\n      0x00\n        /* \"#utility.yul\":1235:1240   */\n      dup2\n        /* \"#utility.yul\":1229:1241   */\n      mload\n        /* \"#utility.yul\":1219:1241   */\n      swap1\n      pop\n        /* \"#utility.yul\":1149:1248   */\n      swap2\n      swap1\n      pop\n      jump\t// out\n        /* \"#utility.yul\":1254:1423   */\n    tag_47:\n        /* \"#utility.yul\":1338:1349   */\n      0x00\n        /* \"#utility.yul\":1372:1378   */\n      dup3\n        /* \"#utility.yul\":1367:1370   */\n      dup3\n        /* \"#utility.yul\":1360:1379   */\n      mstore\n        /* \"#utility.yul\":1412:1416   */\n      0x20\n        /* \"#utility.yul\":1407:1410   */\n      dup3\n        /* \"#utility.yul\":1403:1417   */\n      add\n        /* \"#utility.yul\":1388:1417   */\n      swap1\n      pop\n        /* \"#utility.yul\":1254:1423   */\n      swap3\n      swap2\n      pop\n      pop\n      jump\t// out\n        /* \"#utility.yul\":1429:1675   */\n    tag_48:\n        /* \"#utility.yul\":1510:1511   */\n      0x00\n        /* \"#utility.yul\":1520:1633   */\n    tag_95:\n        /* \"#utility.yul\":1534:1540   */\n      dup4\n        /* \"#utility.yul\":1531:1532   */\n      dup2\n        /* \"#utility.yul\":1528:1541   */\n      lt\n        /* \"#utility.yul\":1520:1633   */\n      iszero\n      tag_97\n      jumpi\n        /* \"#utility.yul\":1619:1620   */\n      dup1\n        /* \"#utility.yul\":1614:1617   */\n      dup3\n        /* \"#utility.yul\":1610:1621   */\n      add\n        /* \"#utility.yul\":1604:1622   */\n      mload\n        /* \"#utility.yul\":1600:1601   */\n      dup2\n        /* \"#utility.yul\":1595:1598   */\n      dup5\n        /* \"#utility.yul\":1591:1602   */\n      add\n        /* \"#utility.yul\":1584:1623   */\n      mstore\n        /* \"#utility.yul\":1556:1558   */\n      0x20\n        /* \"#utility.yul\":1553:1554   */\n      dup2\n        /* \"#utility.yul\":1549:1559   */\n      add\n        /* \"#utility.yul\":1544:1559   */\n      swap1\n      pop\n        /* \"#utility.yul\":1520:1633   */\n      jump(tag_95)\n    tag_97:\n        /* \"#utility.yul\":1667:1668   */\n      0x00\n        /* \"#utility.yul\":1658:1664   */\n      dup5\n        /* \"#utility.yul\":1653:1656   */\n      dup5\n        /* \"#utility.yul\":1649:1665   */\n      add\n        /* \"#utility.yul\":1642:1669   */\n      mstore\n        /* \"#utility.yul\":1491:1675   */\n      pop\n        /* \"#utility.yul\":1429:1675   */\n      pop\n      pop\n      pop\n      jump\t// out\n        /* \"#utility.yul\":1681:1783   */\n    tag_49:\n        /* \"#utility.yul\":1722:1728   */\n      0x00\n        /* \"#utility.yul\":1773:1775   */\n      0x1f\n        /* \"#utility.yul\":1769:1776   */\n      not\n        /* \"#utility.yul\":1764:1766   */\n      0x1f\n        /* \"#utility.yul\":1757:1762   */\n      dup4\n        /* \"#utility.yul\":1753:1767   */\n      add\n        /* \"#utility.yul\":1749:1777   */\n      and\n        /* \"#utility.yul\":1739:1777   */\n      swap1\n      pop\n        /* \"#utility.yul\":1681:1783   */\n      swap2\n      swap1\n      pop\n      jump\t// out\n        /* \"#utility.yul\":1789:2166   */\n    tag_50:\n        /* \"#utility.yul\":1877:1880   */\n      0x00\n        /* \"#utility.yul\":1905:1944   */\n      tag_100\n        /* \"#utility.yul\":1938:1943   */\n      dup3\n        /* \"#utility.yul\":1905:1944   */\n      tag_46\n      jump\t// in\n    tag_100:\n        /* \"#utility.yul\":1960:2031   */\n      tag_101\n        /* \"#utility.yul\":2024:2030   */\n      dup2\n        /* \"#utility.yul\":2019:2022   */\n      dup6\n        /* \"#utility.yul\":1960:2031   */\n      tag_47\n      jump\t// in\n    tag_101:\n        /* \"#utility.yul\":1953:2031   */\n      swap4\n      pop\n        /* \"#utility.yul\":2040:2105   */\n      tag_102\n        /* \"#utility.yul\":2098:2104   */\n      dup2\n        /* \"#utility.yul\":2093:2096   */\n      dup6\n        /* \"#utility.yul\":2086:2090   */\n      0x20\n        /* \"#utility.yul\":2079:2084   */\n      dup7\n        /* \"#utility.yul\":2075:2091   */\n      add\n        /* \"#utility.yul\":2040:2105   */\n      tag_48\n      jump\t// in\n    tag_102:\n        /* \"#utility.yul\":2130:2159   */\n      tag_103\n        /* \"#utility.yul\":2152:2158   */\n      dup2\n        /* \"#utility.yul\":2130:2159   */\n      tag_49\n      jump\t// in\n    tag_103:\n        /* \"#utility.yul\":2125:2128   */\n      dup5\n        /* \"#utility.yul\":2121:2160   */\n      add\n        /* \"#utility.yul\":2114:2160   */\n      swap2\n      pop\n        /* \"#utility.yul\":1881:2166   */\n      pop\n        /* \"#utility.yul\":1789:2166   */\n      swap3\n      swap2\n      pop\n      pop\n      jump\t// out\n        /* \"#utility.yul\":2172:2595   */\n    tag_11:\n        /* \"#utility.yul\":2313:2317   */\n      0x00\n        /* \"#utility.yul\":2351:2353   */\n      0x40\n        /* \"#utility.yul\":2340:2349   */\n      dup3\n        /* \"#utility.yul\":2336:2354   */\n      add\n        /* \"#utility.yul\":2328:2354   */\n      swap1\n      pop\n        /* \"#utility.yul\":2364:2435   */\n      tag_105\n        /* \"#utility.yul\":2432:2433   */\n      0x00\n        /* \"#utility.yul\":2421:2430   */\n      dup4\n        /* \"#utility.yul\":2417:2434   */\n      add\n        /* \"#utility.yul\":2408:2414   */\n      dup6\n        /* \"#utility.yul\":2364:2435   */\n      tag_45\n      jump\t// in\n    tag_105:\n        /* \"#utility.yul\":2482:2491   */\n      dup2\n        /* \"#utility.yul\":2476:2480   */\n      dup2\n        /* \"#utility.yul\":2472:2492   */\n      sub\n        /* \"#utility.yul\":2467:2469   */\n      0x20\n        /* \"#utility.yul\":2456:2465   */\n      dup4\n        /* \"#utility.yul\":2452:2470   */\n      add\n        /* \"#utility.yul\":2445:2493   */\n      mstore\n        /* \"#utility.yul\":2510:2588   */\n      tag_106\n        /* \"#utility.yul\":2583:2587   */\n      dup2\n        /* \"#utility.yul\":2574:2580   */\n      dup5\n        /* \"#utility.yul\":2510:2588   */\n      tag_50\n      jump\t// in\n    tag_106:\n        /* \"#utility.yul\":2502:2588   */\n      swap1\n      pop\n        /* \"#utility.yul\":2172:2595   */\n      swap4\n      swap3\n      pop\n      pop\n      pop\n      jump\t// out\n        /* \"#utility.yul\":2601:2914   */\n    tag_16:\n        /* \"#utility.yul\":2714:2718   */\n      0x00\n        /* \"#utility.yul\":2752:2754   */\n      0x20\n        /* \"#utility.yul\":2741:2750   */\n      dup3\n        /* \"#utility.yul\":2737:2755   */\n      add\n        /* \"#utility.yul\":2729:2755   */\n      swap1\n      pop\n        /* \"#utility.yul\":2801:2810   */\n      dup2\n        /* \"#utility.yul\":2795:2799   */\n      dup2\n        /* \"#utility.yul\":2791:2811   */\n      sub\n        /* \"#utility.yul\":2787:2788   */\n      0x00\n        /* \"#utility.yul\":2776:2785   */\n      dup4\n        /* \"#utility.yul\":2772:2789   */\n      add\n        /* \"#utility.yul\":2765:2812   */\n      mstore\n        /* \"#utility.yul\":2829:2907   */\n      tag_108\n        /* \"#utility.yul\":2902:2906   */\n      dup2\n        /* \"#utility.yul\":2893:2899   */\n      dup5\n        /* \"#utility.yul\":2829:2907   */\n      tag_50\n      jump\t// in\n    tag_108:\n        /* \"#utility.yul\":2821:2907   */\n      swap1\n      pop\n        /* \"#utility.yul\":2601:2914   */\n      swap3\n      swap2\n      pop\n      pop\n      jump\t// out\n        /* \"#utility.yul\":2920:3037   */\n    tag_51:\n        /* \"#utility.yul\":3029:3030   */\n      0x00\n        /* \"#utility.yul\":3026:3027   */\n      dup1\n        /* \"#utility.yul\":3019:3031   */\n      revert\n        /* \"#utility.yul\":3043:3160   */\n    tag_52:\n        /* \"#utility.yul\":3152:3153   */\n      0x00\n        /* \"#utility.yul\":3149:3150   */\n      dup1\n        /* \"#utility.yul\":3142:3154   */\n      revert\n        /* \"#utility.yul\":3166:3346   */\n    tag_53:\n        /* \"#utility.yul\":3214:3291   */\n      0x4e487b7100000000000000000000000000000000000000000000000000000000\n        /* \"#utility.yul\":3211:3212   */\n      0x00\n        /* \"#utility.yul\":3204:3292   */\n      mstore\n        /* \"#utility.yul\":3311:3315   */\n      0x41\n        /* \"#utility.yul\":3308:3309   */\n      0x04\n        /* \"#utility.yul\":3301:3316   */\n      mstore\n        /* \"#utility.yul\":3335:3339   */\n      0x24\n        /* \"#utility.yul\":3332:3333   */\n      0x00\n        /* \"#utility.yul\":3325:3340   */\n      revert\n        /* \"#utility.yul\":3352:3633   */\n    tag_54:\n        /* \"#utility.yul\":3435:3462   */\n      tag_113\n        /* \"#utility.yul\":3457:3461   */\n      dup3\n        /* \"#utility.yul\":3435:3462   */\n      tag_49\n      jump\t// in\n    tag_113:\n        /* \"#utility.yul\":3427:3433   */\n      dup2\n        /* \"#utility.yul\":3423:3463   */\n      add\n        /* \"#utility.yul\":3565:3571   */\n      dup2\n        /* \"#utility.yul\":3553:3563   */\n      dup2\n        /* \"#utility.yul\":3550:3572   */\n      lt\n        /* \"#utility.yul\":3529:3547   */\n      0xffffffffffffffff\n        /* \"#utility.yul\":3517:3527   */\n      dup3\n        /* \"#utility.yul\":3514:3548   */\n      gt\n        /* \"#utility.yul\":3511:3573   */\n      or\n        /* \"#utility.yul\":3508:3596   */\n      iszero\n      tag_114\n      jumpi\n        /* \"#utility.yul\":3576:3594   */\n      tag_115\n      tag_53\n      jump\t// in\n    tag_115:\n        /* \"#utility.yul\":3508:3596   */\n    tag_114:\n        /* \"#utility.yul\":3616:3626   */\n      dup1\n        /* \"#utility.yul\":3612:3614   */\n      0x40\n        /* \"#utility.yul\":3605:3627   */\n      mstore\n        /* \"#utility.yul\":3395:3633   */\n      pop\n        /* \"#utility.yul\":3352:3633   */\n      pop\n      pop\n      jump\t// out\n        /* \"#utility.yul\":3639:3768   */\n    tag_55:\n        /* \"#utility.yul\":3673:3679   */\n      0x00\n        /* \"#utility.yul\":3700:3720   */\n      tag_117\n      tag_39\n      jump\t// in\n    tag_117:\n        /* \"#utility.yul\":3690:3720   */\n      swap1\n      pop\n        /* \"#utility.yul\":3729:3762   */\n      tag_118\n        /* \"#utility.yul\":3757:3761   */\n      dup3\n        /* \"#utility.yul\":3749:3755   */\n      dup3\n        /* \"#utility.yul\":3729:3762   */\n      tag_54\n      jump\t// in\n    tag_118:\n        /* \"#utility.yul\":3639:3768   */\n      swap2\n      swap1\n      pop\n      jump\t// out\n        /* \"#utility.yul\":3774:4082   */\n    tag_56:\n        /* \"#utility.yul\":3836:3840   */\n      0x00\n        /* \"#utility.yul\":3926:3944   */\n      0xffffffffffffffff\n        /* \"#utility.yul\":3918:3924   */\n      dup3\n        /* \"#utility.yul\":3915:3945   */\n      gt\n        /* \"#utility.yul\":3912:3968   */\n      iszero\n      tag_120\n      jumpi\n        /* \"#utility.yul\":3948:3966   */\n      tag_121\n      tag_53\n      jump\t// in\n    tag_121:\n        /* \"#utility.yul\":3912:3968   */\n    tag_120:\n        /* \"#utility.yul\":3986:4015   */\n      tag_122\n        /* \"#utility.yul\":4008:4014   */\n      dup3\n        /* \"#utility.yul\":3986:4015   */\n      tag_49\n      jump\t// in\n    tag_122:\n        /* \"#utility.yul\":3978:4015   */\n      swap1\n      pop\n        /* \"#utility.yul\":4070:4074   */\n      0x20\n        /* \"#utility.yul\":4064:4068   */\n      dup2\n        /* \"#utility.yul\":4060:4075   */\n      add\n        /* \"#utility.yul\":4052:4075   */\n      swap1\n      pop\n        /* \"#utility.yul\":3774:4082   */\n      swap2\n      swap1\n      pop\n      jump\t// out\n        /* \"#utility.yul\":4088:4234   */\n    tag_57:\n        /* \"#utility.yul\":4185:4191   */\n      dup3\n        /* \"#utility.yul\":4180:4183   */\n      dup2\n        /* \"#utility.yul\":4175:4178   */\n      dup4\n        /* \"#utility.yul\":4162:4192   */\n      calldatacopy\n        /* \"#utility.yul\":4226:4227   */\n      0x00\n        /* \"#utility.yul\":4217:4223   */\n      dup4\n        /* \"#utility.yul\":4212:4215   */\n      dup4\n        /* \"#utility.yul\":4208:4224   */\n      add\n        /* \"#utility.yul\":4201:4228   */\n      mstore\n        /* \"#utility.yul\":4088:4234   */\n      pop\n      pop\n      pop\n      jump\t// out\n        /* \"#utility.yul\":4240:4665   */\n    tag_58:\n        /* \"#utility.yul\":4318:4323   */\n      0x00\n        /* \"#utility.yul\":4343:4409   */\n      tag_125\n        /* \"#utility.yul\":4359:4408   */\n      tag_126\n        /* \"#utility.yul\":4401:4407   */\n      dup5\n        /* \"#utility.yul\":4359:4408   */\n      tag_56\n      jump\t// in\n    tag_126:\n        /* \"#utility.yul\":4343:4409   */\n      tag_55\n      jump\t// in\n    tag_125:\n        /* \"#utility.yul\":4334:4409   */\n      swap1\n      pop\n        /* \"#utility.yul\":4432:4438   */\n      dup3\n        /* \"#utility.yul\":4425:4430   */\n      dup2\n        /* \"#utility.yul\":4418:4439   */\n      mstore\n        /* \"#utility.yul\":4470:4474   */\n      0x20\n        /* \"#utility.yul\":4463:4468   */\n      dup2\n        /* \"#utility.yul\":4459:4475   */\n      add\n        /* \"#utility.yul\":4508:4511   */\n      dup5\n        /* \"#utility.yul\":4499:4505   */\n      dup5\n        /* \"#utility.yul\":4494:4497   */\n      dup5\n        /* \"#utility.yul\":4490:4506   */\n      add\n        /* \"#utility.yul\":4487:4512   */\n      gt\n        /* \"#utility.yul\":4484:4596   */\n      iszero\n      tag_127\n      jumpi\n        /* \"#utility.yul\":4515:4594   */\n      tag_128\n      tag_52\n      jump\t// in\n    tag_128:\n        /* \"#utility.yul\":4484:4596   */\n    tag_127:\n        /* \"#utility.yul\":4605:4659   */\n      tag_129\n        /* \"#utility.yul\":4652:4658   */\n      dup5\n        /* \"#utility.yul\":4647:4650   */\n      dup3\n        /* \"#utility.yul\":4642:4645   */\n      dup6\n        /* \"#utility.yul\":4605:4659   */\n      tag_57\n      jump\t// in\n    tag_129:\n        /* \"#utility.yul\":4324:4665   */\n      pop\n        /* \"#utility.yul\":4240:4665   */\n      swap4\n      swap3\n      pop\n      pop\n      pop\n      jump\t// out\n        /* \"#utility.yul\":4685:5025   */\n    tag_59:\n        /* \"#utility.yul\":4741:4746   */\n      0x00\n        /* \"#utility.yul\":4790:4793   */\n      dup3\n        /* \"#utility.yul\":4783:4787   */\n      0x1f\n        /* \"#utility.yul\":4775:4781   */\n      dup4\n        /* \"#utility.yul\":4771:4788   */\n      add\n        /* \"#utility.yul\":4767:4794   */\n      slt\n        /* \"#utility.yul\":4757:4879   */\n      tag_131\n      jumpi\n        /* \"#utility.yul\":4798:4877   */\n      tag_132\n      tag_51\n      jump\t// in\n    tag_132:\n        /* \"#utility.yul\":4757:4879   */\n    tag_131:\n        /* \"#utility.yul\":4915:4921   */\n      dup2\n        /* \"#utility.yul\":4902:4922   */\n      calldataload\n        /* \"#utility.yul\":4940:5019   */\n      tag_133\n        /* \"#utility.yul\":5015:5018   */\n      dup5\n        /* \"#utility.yul\":5007:5013   */\n      dup3\n        /* \"#utility.yul\":5000:5004   */\n      0x20\n        /* \"#utility.yul\":4992:4998   */\n      dup7\n        /* \"#utility.yul\":4988:5005   */\n      add\n        /* \"#utility.yul\":4940:5019   */\n      tag_58\n      jump\t// in\n    tag_133:\n        /* \"#utility.yul\":4931:5019   */\n      swap2\n      pop\n        /* \"#utility.yul\":4747:5025   */\n      pop\n        /* \"#utility.yul\":4685:5025   */\n      swap3\n      swap2\n      pop\n      pop\n      jump\t// out\n        /* \"#utility.yul\":5031:5685   */\n    tag_19:\n        /* \"#utility.yul\":5109:5115   */\n      0x00\n        /* \"#utility.yul\":5117:5123   */\n      dup1\n        /* \"#utility.yul\":5166:5168   */\n      0x40\n        /* \"#utility.yul\":5154:5163   */\n      dup4\n        /* \"#utility.yul\":5145:5152   */\n      dup6\n        /* \"#utility.yul\":5141:5164   */\n      sub\n        /* \"#utility.yul\":5137:5169   */\n      slt\n        /* \"#utility.yul\":5134:5253   */\n      iszero\n      tag_135\n      jumpi\n        /* \"#utility.yul\":5172:5251   */\n      tag_136\n      tag_40\n      jump\t// in\n    tag_136:\n        /* \"#utility.yul\":5134:5253   */\n    tag_135:\n        /* \"#utility.yul\":5292:5293   */\n      0x00\n        /* \"#utility.yul\":5317:5370   */\n      tag_137\n        /* \"#utility.yul\":5362:5369   */\n      dup6\n        /* \"#utility.yul\":5353:5359   */\n      dup3\n        /* \"#utility.yul\":5342:5351   */\n      dup7\n        /* \"#utility.yul\":5338:5360   */\n      add\n        /* \"#utility.yul\":5317:5370   */\n      tag_44\n      jump\t// in\n    tag_137:\n        /* \"#utility.yul\":5307:5370   */\n      swap3\n      pop\n        /* \"#utility.yul\":5263:5380   */\n      pop\n        /* \"#utility.yul\":5447:5449   */\n      0x20\n        /* \"#utility.yul\":5436:5445   */\n      dup4\n        /* \"#utility.yul\":5432:5450   */\n      add\n        /* \"#utility.yul\":5419:5451   */\n      calldataload\n        /* \"#utility.yul\":5478:5496   */\n      0xffffffffffffffff\n        /* \"#utility.yul\":5470:5476   */\n      dup2\n        /* \"#utility.yul\":5467:5497   */\n      gt\n        /* \"#utility.yul\":5464:5581   */\n      iszero\n      tag_138\n      jumpi\n        /* \"#utility.yul\":5500:5579   */\n      tag_139\n      tag_41\n      jump\t// in\n    tag_139:\n        /* \"#utility.yul\":5464:5581   */\n    tag_138:\n        /* \"#utility.yul\":5605:5668   */\n      tag_140\n        /* \"#utility.yul\":5660:5667   */\n      dup6\n        /* \"#utility.yul\":5651:5657   */\n      dup3\n        /* \"#utility.yul\":5640:5649   */\n      dup7\n        /* \"#utility.yul\":5636:5658   */\n      add\n        /* \"#utility.yul\":5605:5668   */\n      tag_59\n      jump\t// in\n    tag_140:\n        /* \"#utility.yul\":5595:5668   */\n      swap2\n      pop\n        /* \"#utility.yul\":5390:5678   */\n      pop\n        /* \"#utility.yul\":5031:5685   */\n      swap3\n      pop\n      swap3\n      swap1\n      pop\n      jump\t// out\n        /* \"#utility.yul\":5691:5871   */\n    tag_60:\n        /* \"#utility.yul\":5739:5816   */\n      0x4e487b7100000000000000000000000000000000000000000000000000000000\n        /* \"#utility.yul\":5736:5737   */\n      0x00\n        /* \"#utility.yul\":5729:5817   */\n      mstore\n        /* \"#utility.yul\":5836:5840   */\n      0x22\n        /* \"#utility.yul\":5833:5834   */\n      0x04\n        /* \"#utility.yul\":5826:5841   */\n      mstore\n        /* \"#utility.yul\":5860:5864   */\n      0x24\n        /* \"#utility.yul\":5857:5858   */\n      0x00\n        /* \"#utility.yul\":5850:5865   */\n      revert\n        /* \"#utility.yul\":5877:6197   */\n    tag_24:\n        /* \"#utility.yul\":5921:5927   */\n      0x00\n        /* \"#utility.yul\":5958:5959   */\n      0x02\n        /* \"#utility.yul\":5952:5956   */\n      dup3\n        /* \"#utility.yul\":5948:5960   */\n      div\n        /* \"#utility.yul\":5938:5960   */\n      swap1\n      pop\n        /* \"#utility.yul\":6005:6006   */\n      0x01\n        /* \"#utility.yul\":5999:6003   */\n      dup3\n        /* \"#utility.yul\":5995:6007   */\n      and\n        /* \"#utility.yul\":6026:6044   */\n      dup1\n        /* \"#utility.yul\":6016:6097   */\n      tag_143\n      jumpi\n        /* \"#utility.yul\":6082:6086   */\n      0x7f\n        /* \"#utility.yul\":6074:6080   */\n      dup3\n        /* \"#utility.yul\":6070:6087   */\n      and\n        /* \"#utility.yul\":6060:6087   */\n      swap2\n      pop\n        /* \"#utility.yul\":6016:6097   */\n    tag_143:\n        /* \"#utility.yul\":6144:6146   */\n      0x20\n        /* \"#utility.yul\":6136:6142   */\n      dup3\n        /* \"#utility.yul\":6133:6147   */\n      lt\n        /* \"#utility.yul\":6113:6131   */\n      dup2\n        /* \"#utility.yul\":6110:6148   */\n      sub\n        /* \"#utility.yul\":6107:6191   */\n      tag_144\n      jumpi\n        /* \"#utility.yul\":6163:6181   */\n      tag_145\n      tag_60\n      jump\t// in\n    tag_145:\n        /* \"#utility.yul\":6107:6191   */\n    tag_144:\n        /* \"#utility.yul\":5928:6197   */\n      pop\n        /* \"#utility.yul\":5877:6197   */\n      swap2\n      swap1\n      pop\n      jump\t// out\n        /* \"#utility.yul\":6203:6344   */\n    tag_61:\n        /* \"#utility.yul\":6252:6256   */\n      0x00\n        /* \"#utility.yul\":6275:6278   */\n      dup2\n        /* \"#utility.yul\":6267:6278   */\n      swap1\n      pop\n        /* \"#utility.yul\":6298:6301   */\n      dup2\n        /* \"#utility.yul\":6295:6296   */\n      0x00\n        /* \"#utility.yul\":6288:6302   */\n      mstore\n        /* \"#utility.yul\":6332:6336   */\n      0x20\n        /* \"#utility.yul\":6329:6330   */\n      0x00\n        /* \"#utility.yul\":6319:6337   */\n      keccak256\n        /* \"#utility.yul\":6311:6337   */\n      swap1\n      pop\n        /* \"#utility.yul\":6203:6344   */\n      swap2\n      swap1\n      pop\n      jump\t// out\n        /* \"#utility.yul\":6350:6443   */\n    tag_62:\n        /* \"#utility.yul\":6387:6393   */\n      0x00\n        /* \"#utility.yul\":6434:6436   */\n      0x20\n        /* \"#utility.yul\":6429:6431   */\n      0x1f\n        /* \"#utility.yul\":6422:6427   */\n      dup4\n        /* \"#utility.yul\":6418:6432   */\n      add\n        /* \"#utility.yul\":6414:6437   */\n      div\n        /* \"#utility.yul\":6404:6437   */\n      swap1\n      pop\n        /* \"#utility.yul\":6350:6443   */\n      swap2\n      swap1\n      pop\n      jump\t// out\n        /* \"#utility.yul\":6449:6556   */\n    tag_63:\n        /* \"#utility.yul\":6493:6501   */\n      0x00\n        /* \"#utility.yul\":6543:6548   */\n      dup3\n        /* \"#utility.yul\":6537:6541   */\n      dup3\n        /* \"#utility.yul\":6533:6549   */\n      shl\n        /* \"#utility.yul\":6512:6549   */\n      swap1\n      pop\n        /* \"#utility.yul\":6449:6556   */\n      swap3\n      swap2\n      pop\n      pop\n      jump\t// out\n        /* \"#utility.yul\":6562:6955   */\n    tag_64:\n        /* \"#utility.yul\":6631:6637   */\n      0x00\n        /* \"#utility.yul\":6681:6682   */\n      0x08\n        /* \"#utility.yul\":6669:6679   */\n      dup4\n        /* \"#utility.yul\":6665:6683   */\n      mul\n        /* \"#utility.yul\":6704:6801   */\n      tag_150\n        /* \"#utility.yul\":6734:6800   */\n      0xffffffffffffffffffffffffffffffffffffffffffffffffffffffffffffffff\n        /* \"#utility.yul\":6723:6732   */\n      dup3\n        /* \"#utility.yul\":6704:6801   */\n      tag_63\n      jump\t// in\n    tag_150:\n        /* \"#utility.yul\":6822:6861   */\n      tag_151\n        /* \"#utility.yul\":6852:6860   */\n      dup7\n        /* \"#utility.yul\":6841:6850   */\n      dup4\n        /* \"#utility.yul\":6822:6861   */\n      tag_63\n      jump\t// in\n    tag_151:\n        /* \"#utility.yul\":6810:6861   */\n      swap6\n      pop\n        /* \"#utility.yul\":6894:6898   */\n      dup1\n        /* \"#utility.yul\":6890:6899   */\n      not\n        /* \"#utility.yul\":6883:6888   */\n      dup5\n        /* \"#utility.yul\":6879:6900   */\n      and\n        /* \"#utility.yul\":6870:6900   */\n      swap4\n      pop\n        /* \"#utility.yul\":6943:6947   */\n      dup1\n        /* \"#utility.yul\":6933:6941   */\n      dup7\n        /* \"#utility.yul\":6929:6948   */\n      and\n        /* \"#utility.yul\":6922:6927   */\n      dup5\n        /* \"#utility.yul\":6919:6949   */\n      or\n        /* \"#utility.yul\":6909:6949   */\n      swap3\n      pop\n        /* \"#utility.yul\":6638:6955   */\n      pop\n      pop\n        /* \"#utility.yul\":6562:6955   */\n      swap4\n      swap3\n      pop\n      pop\n      pop\n      jump\t// out\n        /* \"#utility.yul\":6961:7021   */\n    tag_65:\n        /* \"#utility.yul\":6989:6992   */\n      0x00\n        /* \"#utility.yul\":7010:7015   */\n      dup2\n        /* \"#utility.yul\":7003:7015   */\n      swap1\n      pop\n        /* \"#utility.yul\":6961:7021   */\n      swap2\n      swap1\n      pop\n      jump\t// out\n        /* \"#utility.yul\":7027:7169   */\n    tag_66:\n        /* \"#utility.yul\":7077:7086   */\n      0x00\n        /* \"#utility.yul\":7110:7163   */\n      tag_154\n        /* \"#utility.yul\":7128:7162   */\n      tag_155\n        /* \"#utility.yul\":7137:7161   */\n      tag_156\n        /* \"#utility.yul\":7155:7160   */\n      dup5\n        /* \"#utility.yul\":7137:7161   */\n      tag_42\n      jump\t// in\n    tag_156:\n        /* \"#utility.yul\":7128:7162   */\n      tag_65\n      jump\t// in\n    tag_155:\n        /* \"#utility.yul\":7110:7163   */\n      tag_42\n      jump\t// in\n    tag_154:\n        /* \"#utility.yul\":7097:7163   */\n      swap1\n      pop\n        /* \"#utility.yul\":7027:7169   */\n      swap2\n      swap1\n      pop\n      jump\t// out\n        /* \"#utility.yul\":7175:7250   */\n    tag_67:\n        /* \"#utility.yul\":7218:7221   */\n      0x00\n        /* \"#utility.yul\":7239:7244   */\n      dup2\n        /* \"#utility.yul\":7232:7244   */\n      swap1\n      pop\n        /* \"#utility.yul\":7175:7250   */\n      swap2\n      swap1\n      pop\n      jump\t// out\n        /* \"#utility.yul\":7256:7525   */\n    tag_68:\n        /* \"#utility.yul\":7366:7405   */\n      tag_159\n        /* \"#utility.yul\":7397:7404   */\n      dup4\n        /* \"#utility.yul\":7366:7405   */\n      tag_66\n      jump\t// in\n    tag_159:\n        /* \"#utility.yul\":7427:7518   */\n      tag_160\n        /* \"#utility.yul\":7476:7517   */\n      tag_161\n        /* \"#utility.yul\":7500:7516   */\n      dup3\n        /* \"#utility.yul\":7476:7517   */\n      tag_67\n      jump\t// in\n    tag_161:\n        /* \"#utility.yul\":7468:7474   */\n      dup5\n        /* \"#utility.yul\":7461:7465   */\n      dup5\n        /* \"#utility.yul\":7455:7466   */\n      sload\n        /* \"#utility.yul\":7427:7518   */\n      tag_64\n      jump\t// in\n    tag_160:\n        /* \"#utility.yul\":7421:7425   */\n      dup3\n        /* \"#utility.yul\":7414:7519   */\n      sstore\n        /* \"#utility.yul\":7332:7525   */\n      pop\n        /* \"#utility.yul\":7256:7525   */\n      pop\n      pop\n      pop\n      jump\t// out\n        /* \"#utility.yul\":7531:7604   */\n    tag_69:\n        /* \"#utility.yul\":7576:7579   */\n      0x00\n        /* \"#utility.yul\":7531:7604   */\n      swap1\n      jump\t// out\n        /* \"#utility.yul\":7610:7799   */\n    tag_70:\n        /* \"#utility.yul\":7687:7719   */\n      tag_164\n      tag_69\n      jump\t// in\n    tag_164:\n        /* \"#utility.yul\":7728:7793   */\n      tag_165\n        /* \"#utility.yul\":7786:7792   */\n      dup2\n        /* \"#utility.yul\":7778:7784   */\n      dup5\n        /* \"#utility.yul\":7772:7776   */\n      dup5\n        /* \"#utility.yul\":7728:7793   */\n      tag_68\n      jump\t// in\n    tag_165:\n        /* \"#utility.yul\":7663:7799   */\n      pop\n        /* \"#utility.yul\":7610:7799   */\n      pop\n      pop\n      jump\t// out\n        /* \"#utility.yul\":7805:7991   */\n    tag_71:\n        /* \"#utility.yul\":7865:7985   */\n    tag_167:\n        /* \"#utility.yul\":7882:7885   */\n      dup2\n        /* \"#utility.yul\":7875:7880   */\n      dup2\n        /* \"#utility.yul\":7872:7886   */\n      lt\n        /* \"#utility.yul\":7865:7985   */\n      iszero\n      tag_169\n      jumpi\n        /* \"#utility.yul\":7936:7975   */\n      tag_170\n        /* \"#utility.yul\":7973:7974   */\n      0x00\n        /* \"#utility.yul\":7966:7971   */\n      dup3\n        /* \"#utility.yul\":7936:7975   */\n      tag_70\n      jump\t// in\n    tag_170:\n        /* \"#utility.yul\":7909:7910   */\n      0x01\n        /* \"#utility.yul\":7902:7907   */\n      dup2\n        /* \"#utility.yul\":7898:7911   */\n      add\n        /* \"#utility.yul\":7889:7911   */\n      swap1\n      pop\n        /* \"#utility.yul\":7865:7985   */\n      jump(tag_167)\n    tag_169:\n        /* \"#utility.yul\":7805:7991   */\n      pop\n      pop\n      jump\t// out\n        /* \"#utility.yul\":7997:8540   */\n    tag_72:\n        /* \"#utility.yul\":8098:8100   */\n      0x1f\n        /* \"#utility.yul\":8093:8096   */\n      dup3\n        /* \"#utility.yul\":8090:8101   */\n      gt\n        /* \"#utility.yul\":8087:8533   */\n      iszero\n      tag_172\n      jumpi\n        /* \"#utility.yul\":8132:8170   */\n      tag_173\n        /* \"#utility.yul\":8164:8169   */\n      dup2\n        /* \"#utility.yul\":8132:8170   */\n      tag_61\n      jump\t// in\n    tag_173:\n        /* \"#utility.yul\":8216:8245   */\n      tag_174\n        /* \"#utility.yul\":8234:8244   */\n      dup5\n        /* \"#utility.yul\":8216:8245   */\n      tag_62\n      jump\t// in\n    tag_174:\n        /* \"#utility.yul\":8206:8214   */\n      dup2\n        /* \"#utility.yul\":8202:8246   */\n      add\n        /* \"#utility.yul\":8399:8401   */\n      0x20\n        /* \"#utility.yul\":8387:8397   */\n      dup6\n        /* \"#utility.yul\":8384:8402   */\n      lt\n        /* \"#utility.yul\":8381:8430   */\n      iszero\n      tag_175\n      jumpi\n        /* \"#utility.yul\":8420:8428   */\n      dup2\n        /* \"#utility.yul\":8405:8428   */\n      swap1\n      pop\n        /* \"#utility.yul\":8381:8430   */\n    tag_175:\n        /* \"#utility.yul\":8443:8523   */\n      tag_176\n        /* \"#utility.yul\":8499:8521   */\n      tag_177\n        /* \"#utility.yul\":8517:8520   */\n      dup6\n        /* \"#utility.yul\":8499:8521   */\n      tag_62\n      jump\t// in\n    tag_177:\n        /* \"#utility.yul\":8489:8497   */\n      dup4\n        /* \"#utility.yul\":8485:8522   */\n      add\n        /* \"#utility.yul\":8472:8483   */\n      dup3\n        /* \"#utility.yul\":8443:8523   */\n      tag_71\n      jump\t// in\n    tag_176:\n        /* \"#utility.yul\":8102:8533   */\n      pop\n      pop\n        /* \"#utility.yul\":8087:8533   */\n    tag_172:\n        /* \"#utility.yul\":7997:8540   */\n      pop\n      pop\n      pop\n      jump\t// out\n        /* \"#utility.yul\":8546:8663   */\n    tag_73:\n        /* \"#utility.yul\":8600:8608   */\n      0x00\n        /* \"#utility.yul\":8650:8655   */\n      dup3\n        /* \"#utility.yul\":8644:8648   */\n      dup3\n        /* \"#utility.yul\":8640:8656   */\n      shr\n        /* \"#utility.yul\":8619:8656   */\n      swap1\n      pop\n        /* \"#utility.yul\":8546:8663   */\n      swap3\n      swap2\n      pop\n      pop\n      jump\t// out\n        /* \"#utility.yul\":8669:8838   */\n    tag_74:\n        /* \"#utility.yul\":8713:8719   */\n      0x00\n        /* \"#utility.yul\":8746:8797   */\n      tag_180\n        /* \"#utility.yul\":8794:8795   */\n      0x00\n        /* \"#utility.yul\":8790:8796   */\n      not\n        /* \"#utility.yul\":8782:8787   */\n      dup5\n        /* \"#utility.yul\":8779:8780   */\n      0x08\n        /* \"#utility.yul\":8775:8788   */\n      mul\n        /* \"#utility.yul\":8746:8797   */\n      tag_73\n      jump\t// in\n    tag_180:\n        /* \"#utility.yul\":8742:8798   */\n      not\n        /* \"#utility.yul\":8827:8831   */\n      dup1\n        /* \"#utility.yul\":8821:8825   */\n      dup4\n        /* \"#utility.yul\":8817:8832   */\n      and\n        /* \"#utility.yul\":8807:8832   */\n      swap2\n      pop\n        /* \"#utility.yul\":8720:8838   */\n      pop\n        /* \"#utility.yul\":8669:8838   */\n      swap3\n      swap2\n      pop\n      pop\n      jump\t// out\n        /* \"#utility.yul\":8843:9138   */\n    tag_75:\n        /* \"#utility.yul\":8919:8923   */\n      0x00\n        /* \"#utility.yul\":9065:9094   */\n      tag_182\n        /* \"#utility.yul\":9090:9093   */\n      dup4\n        /* \"#utility.yul\":9084:9088   */\n      dup4\n        /* \"#utility.yul\":9065:9094   */\n      tag_74\n      jump\t// in\n    tag_182:\n        /* \"#utility.yul\":9057:9094   */\n      swap2\n      pop\n        /* \"#utility.yul\":9127:9130   */\n      dup3\n        /* \"#utility.yul\":9124:9125   */\n      0x02\n        /* \"#utility.yul\":9120:9131   */\n      mul\n        /* \"#utility.yul\":9114:9118   */\n      dup3\n        /* \"#utility.yul\":9111:9132   */\n      or\n        /* \"#utility.yul\":9103:9132   */\n      swap1\n      pop\n        /* \"#utility.yul\":8843:9138   */\n      swap3\n      swap2\n      pop\n      pop\n      jump\t// out\n        /* \"#utility.yul\":9143:10538   */\n    tag_37:\n        /* \"#utility.yul\":9260:9297   */\n      tag_184\n        /* \"#utility.yul\":9293:9296   */\n      dup3\n        /* \"#utility.yul\":9260:9297   */\n      tag_46\n      jump\t// in\n    tag_184:\n        /* \"#utility.yul\":9362:9380   */\n      0xffffffffffffffff\n        /* \"#utility.yul\":9354:9360   */\n      dup2\n        /* \"#utility.yul\":9351:9381   */\n      gt\n        /* \"#utility.yul\":9348:9404   */\n      iszero\n      tag_185\n      jumpi\n        /* \"#utility.yul\":9384:9402   */\n      tag_186\n      tag_53\n      jump\t// in\n    tag_186:\n        /* \"#utility.yul\":9348:9404   */\n    tag_185:\n        /* \"#utility.yul\":9428:9466   */\n      tag_187\n        /* \"#utility.yul\":9460:9464   */\n      dup3\n        /* \"#utility.yul\":9454:9465   */\n      sload\n        /* \"#utility.yul\":9428:9466   */\n      tag_24\n      jump\t// in\n    tag_187:\n        /* \"#utility.yul\":9513:9580   */\n      tag_188\n        /* \"#utility.yul\":9573:9579   */\n      dup3\n        /* \"#utility.yul\":9565:9571   */\n      dup3\n        /* \"#utility.yul\":9559:9563   */\n      dup6\n        /* \"#utility.yul\":9513:9580   */\n      tag_72\n      jump\t// in\n    tag_188:\n        /* \"#utility.yul\":9607:9608   */\n      0x00\n        /* \"#utility.yul\":9631:9635   */\n      0x20\n        /* \"#utility.yul\":9618:9635   */\n      swap1\n      pop\n        /* \"#utility.yul\":9663:9665   */\n      0x1f\n        /* \"#utility.yul\":9655:9661   */\n      dup4\n        /* \"#utility.yul\":9652:9666   */\n      gt\n        /* \"#utility.yul\":9680:9681   */\n      0x01\n        /* \"#utility.yul\":9675:10293   */\n      dup2\n      eq\n      tag_190\n      jumpi\n        /* \"#utility.yul\":10337:10338   */\n      0x00\n        /* \"#utility.yul\":10354:10360   */\n      dup5\n        /* \"#utility.yul\":10351:10428   */\n      iszero\n      tag_191\n      jumpi\n        /* \"#utility.yul\":10403:10412   */\n      dup3\n        /* \"#utility.yul\":10398:10401   */\n      dup8\n        /* \"#utility.yul\":10394:10413   */\n      add\n        /* \"#utility.yul\":10388:10414   */\n      mload\n        /* \"#utility.yul\":10379:10414   */\n      swap1\n      pop\n        /* \"#utility.yul\":10351:10428   */\n    tag_191:\n        /* \"#utility.yul\":10454:10521   */\n      tag_192\n        /* \"#utility.yul\":10514:10520   */\n      dup6\n        /* \"#utility.yul\":10507:10512   */\n      dup3\n        /* \"#utility.yul\":10454:10521   */\n      tag_75\n      jump\t// in\n    tag_192:\n        /* \"#utility.yul\":10448:10452   */\n      dup7\n        /* \"#utility.yul\":10441:10522   */\n      sstore\n        /* \"#utility.yul\":10310:10532   */\n      pop\n        /* \"#utility.yul\":9645:10532   */\n      jump(tag_189)\n        /* \"#utility.yul\":9675:10293   */\n    tag_190:\n        /* \"#utility.yul\":9727:9731   */\n      0x1f\n        /* \"#utility.yul\":9723:9732   */\n      not\n        /* \"#utility.yul\":9715:9721   */\n      dup5\n        /* \"#utility.yul\":9711:9733   */\n      and\n        /* \"#utility.yul\":9761:9798   */\n      tag_193\n        /* \"#utility.yul\":9793:9797   */\n      dup7\n        /* \"#utility.yul\":9761:9798   */\n      tag_61\n      jump\t// in\n    tag_193:\n        /* \"#utility.yul\":9820:9821   */\n      0x00\n        /* \"#utility.yul\":9834:10042   */\n    tag_194:\n        /* \"#utility.yul\":9848:9855   */\n      dup3\n        /* \"#utility.yul\":9845:9846   */\n      dup2\n        /* \"#utility.yul\":9842:9856   */\n      lt\n        /* \"#utility.yul\":9834:10042   */\n      iszero\n      tag_196\n      jumpi\n        /* \"#utility.yul\":9927:9936   */\n      dup5\n        /* \"#utility.yul\":9922:9925   */\n      dup10\n        /* \"#utility.yul\":9918:9937   */\n      add\n        /* \"#utility.yul\":9912:9938   */\n      mload\n        /* \"#utility.yul\":9904:9910   */\n      dup3\n        /* \"#utility.yul\":9897:9939   */\n      sstore\n        /* \"#utility.yul\":9978:9979   */\n      0x01\n        /* \"#utility.yul\":9970:9976   */\n      dup3\n        /* \"#utility.yul\":9966:9980   */\n      add\n        /* \"#utility.yul\":9956:9980   */\n      swap2\n      pop\n        /* \"#utility.yul\":10025:10027   */\n      0x20\n        /* \"#utility.yul\":10014:10023   */\n      dup6\n        /* \"#utility.yul\":10010:10028   */\n      add\n        /* \"#utility.yul\":9997:10028   */\n      swap5\n      pop\n        /* \"#utility.yul\":9871:9875   */\n      0x20\n        /* \"#utility.yul\":9868:9869   */\n      dup2\n        /* \"#utility.yul\":9864:9876   */\n      add\n        /* \"#utility.yul\":9859:9876   */\n      swap1\n      pop\n        /* \"#utility.yul\":9834:10042   */\n      jump(tag_194)\n    tag_196:\n        /* \"#utility.yul\":10070:10076   */\n      dup7\n        /* \"#utility.yul\":10061:10068   */\n      dup4\n        /* \"#utility.yul\":10058:10077   */\n      lt\n        /* \"#utility.yul\":10055:10234   */\n      iszero\n      tag_197\n      jumpi\n        /* \"#utility.yul\":10128:10137   */\n      dup5\n        /* \"#utility.yul\":10123:10126   */\n      dup10\n        /* \"#utility.yul\":10119:10138   */\n      add\n        /* \"#utility.yul\":10113:10139   */\n      mload\n        /* \"#utility.yul\":10171:10219   */\n      tag_198\n        /* \"#utility.yul\":10213:10217   */\n      0x1f\n        /* \"#utility.yul\":10205:10211   */\n      dup10\n        /* \"#utility.yul\":10201:10218   */\n      and\n        /* \"#utility.yul\":10190:10199   */\n      dup3\n        /* \"#utility.yul\":10171:10219   */\n      tag_74\n      jump\t// in\n    tag_198:\n        /* \"#utility.yul\":10163:10169   */\n      dup4\n        /* \"#utility.yul\":10156:10220   */\n      sstore\n        /* \"#utility.yul\":10078:10234   */\n      pop\n        /* \"#utility.yul\":10055:10234   */\n    tag_197:\n        /* \"#utility.yul\":10280:10281   */\n      0x01\n        /* \"#utility.yul\":10276:10277   */\n      0x02\n        /* \"#utility.yul\":10268:10274   */\n      dup9\n        /* \"#utility.yul\":10264:10278   */\n      mul\n        /* \"#utility.yul\":10260:10282   */\n      add\n        /* \"#utility.yul\":10254:10258   */\n      dup9\n        /* \"#utility.yul\":10247:10283   */\n      sstore\n        /* \"#utility.yul\":9682:10293   */\n      pop\n      pop\n      pop\n        /* \"#utility.yul\":9645:10532   */\n    tag_189:\n      pop\n        /* \"#utility.yul\":9235:10538   */\n      pop\n      pop\n      pop\n        /* \"#utility.yul\":9143:10538   */\n      pop\n      pop\n      jump\t// out\n\n    auxdata: 0xa264697066735822122060d72d2248c979f6f85655de3746da57087fa77fe7379b4ef0905504e533c6c664736f6c63430008120033\n}\n",
				"bytecode": {
					"linkReferences": {},
					"object": "608060405234801561001057600080fd5b506108b3806100206000396000f3fe608060405234801561001057600080fd5b50600436106100415760003560e01c8063a278133514610046578063b44e647714610077578063ed7c5462146100a7575b600080fd5b610060600480360381019061005b91906102f0565b6100c3565b60405161006e9291906103bc565b60405180910390f35b610091600480360381019061008c91906102f0565b61017f565b60405161009e91906103ec565b60405180910390f35b6100c160048036038101906100bc9190610543565b61021f565b005b600081815481106100d357600080fd5b90600052602060002090600202016000915090508060000154908060010180546100fc906105ce565b80601f0160208091040260200160405190810160405280929190818152602001828054610128906105ce565b80156101755780601f1061014a57610100808354040283529160200191610175565b820191906000526020600020905b81548152906001019060200180831161015857829003601f168201915b5050505050905082565b6001602052806000526040600020600091509050805461019e906105ce565b80601f01602080910402602001604051908101604052809291908181526020018280546101ca906105ce565b80156102175780601f106101ec57610100808354040283529160200191610217565b820191906000526020600020905b8154815290600101906020018083116101fa57829003601f168201915b505050505081565b6000604051806040016040528084815260200183815250908060018154018082558091505060019003906000526020600020906002020160009091909190915060008201518160000155602082015181600101908161027e91906107ab565b505050806001600084815260200190815260200160002090816102a191906107ab565b505050565b6000604051905090565b600080fd5b600080fd5b6000819050919050565b6102cd816102ba565b81146102d857600080fd5b50565b6000813590506102ea816102c4565b92915050565b600060208284031215610306576103056102b0565b5b6000610314848285016102db565b91505092915050565b610326816102ba565b82525050565b600081519050919050565b600082825260208201905092915050565b60005b8381101561036657808201518184015260208101905061034b565b60008484015250505050565b6000601f19601f8301169050919050565b600061038e8261032c565b6103988185610337565b93506103a8818560208601610348565b6103b181610372565b840191505092915050565b60006040820190506103d1600083018561031d565b81810360208301526103e38184610383565b90509392505050565b600060208201905081810360008301526104068184610383565b905092915050565b600080fd5b600080fd5b7f4e487b7100000000000000000000000000000000000000000000000000000000600052604160045260246000fd5b61045082610372565b810181811067ffffffffffffffff8211171561046f5761046e610418565b5b80604052505050565b60006104826102a6565b905061048e8282610447565b919050565b600067ffffffffffffffff8211156104ae576104ad610418565b5b6104b782610372565b9050602081019050919050565b82818337600083830152505050565b60006104e66104e184610493565b610478565b90508281526020810184848401111561050257610501610413565b5b61050d8482856104c4565b509392505050565b600082601f83011261052a5761052961040e565b5b813561053a8482602086016104d3565b91505092915050565b6000806040838503121561055a576105596102b0565b5b6000610568858286016102db565b925050602083013567ffffffffffffffff811115610589576105886102b5565b5b61059585828601610515565b9150509250929050565b7f4e487b7100000000000000000000000000000000000000000000000000000000600052602260045260246000fd5b600060028204905060018216806105e657607f821691505b6020821081036105f9576105f861059f565b5b50919050565b60008190508160005260206000209050919050565b60006020601f8301049050919050565b600082821b905092915050565b6000600883026106617fffffffffffffffffffffffffffffffffffffffffffffffffffffffffffffffff82610624565b61066b8683610624565b95508019841693508086168417925050509392505050565b6000819050919050565b60006106a86106a361069e846102ba565b610683565b6102ba565b9050919050565b6000819050919050565b6106c28361068d565b6106d66106ce826106af565b848454610631565b825550505050565b600090565b6106eb6106de565b6106f68184846106b9565b505050565b5b8181101561071a5761070f6000826106e3565b6001810190506106fc565b5050565b601f82111561075f57610730816105ff565b61073984610614565b81016020851015610748578190505b61075c61075485610614565b8301826106fb565b50505b505050565b600082821c905092915050565b600061078260001984600802610764565b1980831691505092915050565b600061079b8383610771565b9150826002028217905092915050565b6107b48261032c565b67ffffffffffffffff8111156107cd576107cc610418565b5b6107d782546105ce565b6107e282828561071e565b600060209050601f8311600181146108155760008415610803578287015190505b61080d858261078f565b865550610875565b601f198416610823866105ff565b60005b8281101561084b57848901518255600182019150602085019450602081019050610826565b868310156108685784890151610864601f891682610771565b8355505b6001600288020188555050505b50505050505056fea264697066735822122060d72d2248c979f6f85655de3746da57087fa77fe7379b4ef0905504e533c6c664736f6c63430008120033",
					"opcodes": "PUSH1 0x80 PUSH1 0x40 MSTORE CALLVALUE DUP1 ISZERO PUSH2 0x10 JUMPI PUSH1 0x0 DUP1 REVERT JUMPDEST POP PUSH2 0x8B3 DUP1 PUSH2 0x20 PUSH1 0x0 CODECOPY PUSH1 0x0 RETURN INVALID PUSH1 0x80 PUSH1 0x40 MSTORE CALLVALUE DUP1 ISZERO PUSH2 0x10 JUMPI PUSH1 0x0 DUP1 REVERT JUMPDEST POP PUSH1 0x4 CALLDATASIZE LT PUSH2 0x41 JUMPI PUSH1 0x0 CALLDATALOAD PUSH1 0xE0 SHR DUP1 PUSH4 0xA2781335 EQ PUSH2 0x46 JUMPI DUP1 PUSH4 0xB44E6477 EQ PUSH2 0x77 JUMPI DUP1 PUSH4 0xED7C5462 EQ PUSH2 0xA7 JUMPI JUMPDEST PUSH1 0x0 DUP1 REVERT JUMPDEST PUSH2 0x60 PUSH1 0x4 DUP1 CALLDATASIZE SUB DUP2 ADD SWAP1 PUSH2 0x5B SWAP2 SWAP1 PUSH2 0x2F0 JUMP JUMPDEST PUSH2 0xC3 JUMP JUMPDEST PUSH1 0x40 MLOAD PUSH2 0x6E SWAP3 SWAP2 SWAP1 PUSH2 0x3BC JUMP JUMPDEST PUSH1 0x40 MLOAD DUP1 SWAP2 SUB SWAP1 RETURN JUMPDEST PUSH2 0x91 PUSH1 0x4 DUP1 CALLDATASIZE SUB DUP2 ADD SWAP1 PUSH2 0x8C SWAP2 SWAP1 PUSH2 0x2F0 JUMP JUMPDEST PUSH2 0x17F JUMP JUMPDEST PUSH1 0x40 MLOAD PUSH2 0x9E SWAP2 SWAP1 PUSH2 0x3EC JUMP JUMPDEST PUSH1 0x40 MLOAD DUP1 SWAP2 SUB SWAP1 RETURN JUMPDEST PUSH2 0xC1 PUSH1 0x4 DUP1 CALLDATASIZE SUB DUP2 ADD SWAP1 PUSH2 0xBC SWAP2 SWAP1 PUSH2 0x543 JUMP JUMPDEST PUSH2 0x21F JUMP JUMPDEST STOP JUMPDEST PUSH1 0x0 DUP2 DUP2 SLOAD DUP2 LT PUSH2 0xD3 JUMPI PUSH1 0x0 DUP1 REVERT JUMPDEST SWAP1 PUSH1 0x0 MSTORE PUSH1 0x20 PUSH1 0x0 KECCAK256 SWAP1 PUSH1 0x2 MUL ADD PUSH1 0x0 SWAP2 POP SWAP1 POP DUP1 PUSH1 0x0 ADD SLOAD SWAP1 DUP1 PUSH1 0x1 ADD DUP1 SLOAD PUSH2 0xFC SWAP1 PUSH2 0x5CE JUMP JUMPDEST DUP1 PUSH1 0x1F ADD PUSH1 0x20 DUP1 SWAP2 DIV MUL PUSH1 0x20 ADD PUSH1 0x40 MLOAD SWAP1 DUP2 ADD PUSH1 0x40 MSTORE DUP1 SWAP3 SWAP2 SWAP1 DUP2 DUP2 MSTORE PUSH1 0x20 ADD DUP3 DUP1 SLOAD PUSH2 0x128 SWAP1 PUSH2 0x5CE JUMP JUMPDEST DUP1 ISZERO PUSH2 0x175 JUMPI DUP1 PUSH1 0x1F LT PUSH2 0x14A JUMPI PUSH2 0x100 DUP1 DUP4 SLOAD DIV MUL DUP4 MSTORE SWAP2 PUSH1 0x20 ADD SWAP2 PUSH2 0x175 JUMP JUMPDEST DUP3 ADD SWAP2 SWAP1 PUSH1 0x0 MSTORE PUSH1 0x20 PUSH1 0x0 KECCAK256 SWAP1 JUMPDEST DUP2 SLOAD DUP2 MSTORE SWAP1 PUSH1 0x1 ADD SWAP1 PUSH1 0x20 ADD DUP1 DUP4 GT PUSH2 0x158 JUMPI DUP3 SWAP1 SUB PUSH1 0x1F AND DUP3 ADD SWAP2 JUMPDEST POP POP POP POP POP SWAP1 POP DUP3 JUMP JUMPDEST PUSH1 0x1 PUSH1 0x20 MSTORE DUP1 PUSH1 0x0 MSTORE PUSH1 0x40 PUSH1 0x0 KECCAK256 PUSH1 0x0 SWAP2 POP SWAP1 POP DUP1 SLOAD PUSH2 0x19E SWAP1 PUSH2 0x5CE JUMP JUMPDEST DUP1 PUSH1 0x1F ADD PUSH1 0x20 DUP1 SWAP2 DIV MUL PUSH1 0x20 ADD PUSH1 0x40 MLOAD SWAP1 DUP2 ADD PUSH1 0x40 MSTORE DUP1 SWAP3 SWAP2 SWAP1 DUP2 DUP2 MSTORE PUSH1 0x20 ADD DUP3 DUP1 SLOAD PUSH2 0x1CA SWAP1 PUSH2 0x5CE JUMP JUMPDEST DUP1 ISZERO PUSH2 0x217 JUMPI DUP1 PUSH1 0x1F LT PUSH2 0x1EC JUMPI PUSH2 0x100 DUP1 DUP4 SLOAD DIV MUL DUP4 MSTORE SWAP2 PUSH1 0x20 ADD SWAP2 PUSH2 0x217 JUMP JUMPDEST DUP3 ADD SWAP2 SWAP1 PUSH1 0x0 MSTORE PUSH1 0x20 PUSH1 0x0 KECCAK256 SWAP1 JUMPDEST DUP2 SLOAD DUP2 MSTORE SWAP1 PUSH1 0x1 ADD SWAP1 PUSH1 0x20 ADD DUP1 DUP4 GT PUSH2 0x1FA JUMPI DUP3 SWAP1 SUB PUSH1 0x1F AND DUP3 ADD SWAP2 JUMPDEST POP POP POP POP POP DUP2 JUMP JUMPDEST PUSH1 0x0 PUSH1 0x40 MLOAD DUP1 PUSH1 0x40 ADD PUSH1 0x40 MSTORE DUP1 DUP5 DUP2 MSTORE PUSH1 0x20 ADD DUP4 DUP2 MSTORE POP SWAP1 DUP1 PUSH1 0x1 DUP2 SLOAD ADD DUP1 DUP3 SSTORE DUP1 SWAP2 POP POP PUSH1 0x1 SWAP1 SUB SWAP1 PUSH1 0x0 MSTORE PUSH1 0x20 PUSH1 0x0 KECCAK256 SWAP1 PUSH1 0x2 MUL ADD PUSH1 0x0 SWAP1 SWAP2 SWAP1 SWAP2 SWAP1 SWAP2 POP PUSH1 0x0 DUP3 ADD MLOAD DUP2 PUSH1 0x0 ADD SSTORE PUSH1 0x20 DUP3 ADD MLOAD DUP2 PUSH1 0x1 ADD SWAP1 DUP2 PUSH2 0x27E SWAP2 SWAP1 PUSH2 0x7AB JUMP JUMPDEST POP POP POP DUP1 PUSH1 0x1 PUSH1 0x0 DUP5 DUP2 MSTORE PUSH1 0x20 ADD SWAP1 DUP2 MSTORE PUSH1 0x20 ADD PUSH1 0x0 KECCAK256 SWAP1 DUP2 PUSH2 0x2A1 SWAP2 SWAP1 PUSH2 0x7AB JUMP JUMPDEST POP POP POP JUMP JUMPDEST PUSH1 0x0 PUSH1 0x40 MLOAD SWAP1 POP SWAP1 JUMP JUMPDEST PUSH1 0x0 DUP1 REVERT JUMPDEST PUSH1 0x0 DUP1 REVERT JUMPDEST PUSH1 0x0 DUP2 SWAP1 POP SWAP2 SWAP1 POP JUMP JUMPDEST PUSH2 0x2CD DUP2 PUSH2 0x2BA JUMP JUMPDEST DUP2 EQ PUSH2 0x2D8 JUMPI PUSH1 0x0 DUP1 REVERT JUMPDEST POP JUMP JUMPDEST PUSH1 0x0 DUP2 CALLDATALOAD SWAP1 POP PUSH2 0x2EA DUP2 PUSH2 0x2C4 JUMP JUMPDEST SWAP3 SWAP2 POP POP JUMP JUMPDEST PUSH1 0x0 PUSH1 0x20 DUP3 DUP5 SUB SLT ISZERO PUSH2 0x306 JUMPI PUSH2 0x305 PUSH2 0x2B0 JUMP JUMPDEST JUMPDEST PUSH1 0x0 PUSH2 0x314 DUP5 DUP3 DUP6 ADD PUSH2 0x2DB JUMP JUMPDEST SWAP2 POP POP SWAP3 SWAP2 POP POP JUMP JUMPDEST PUSH2 0x326 DUP2 PUSH2 0x2BA JUMP JUMPDEST DUP3 MSTORE POP POP JUMP JUMPDEST PUSH1 0x0 DUP2 MLOAD SWAP1 POP SWAP2 SWAP1 POP JUMP JUMPDEST PUSH1 0x0 DUP3 DUP3 MSTORE PUSH1 0x20 DUP3 ADD SWAP1 POP SWAP3 SWAP2 POP POP JUMP JUMPDEST PUSH1 0x0 JUMPDEST DUP4 DUP2 LT ISZERO PUSH2 0x366 JUMPI DUP1 DUP3 ADD MLOAD DUP2 DUP5 ADD MSTORE PUSH1 0x20 DUP2 ADD SWAP1 POP PUSH2 0x34B JUMP JUMPDEST PUSH1 0x0 DUP5 DUP5 ADD MSTORE POP POP POP POP JUMP JUMPDEST PUSH1 0x0 PUSH1 0x1F NOT PUSH1 0x1F DUP4 ADD AND SWAP1 POP SWAP2 SWAP1 POP JUMP JUMPDEST PUSH1 0x0 PUSH2 0x38E DUP3 PUSH2 0x32C JUMP JUMPDEST PUSH2 0x398 DUP2 DUP6 PUSH2 0x337 JUMP JUMPDEST SWAP4 POP PUSH2 0x3A8 DUP2 DUP6 PUSH1 0x20 DUP7 ADD PUSH2 0x348 JUMP JUMPDEST PUSH2 0x3B1 DUP2 PUSH2 0x372 JUMP JUMPDEST DUP5 ADD SWAP2 POP POP SWAP3 SWAP2 POP POP JUMP JUMPDEST PUSH1 0x0 PUSH1 0x40 DUP3 ADD SWAP1 POP PUSH2 0x3D1 PUSH1 0x0 DUP4 ADD DUP6 PUSH2 0x31D JUMP JUMPDEST DUP2 DUP2 SUB PUSH1 0x20 DUP4 ADD MSTORE PUSH2 0x3E3 DUP2 DUP5 PUSH2 0x383 JUMP JUMPDEST SWAP1 POP SWAP4 SWAP3 POP POP POP JUMP JUMPDEST PUSH1 0x0 PUSH1 0x20 DUP3 ADD SWAP1 POP DUP2 DUP2 SUB PUSH1 0x0 DUP4 ADD MSTORE PUSH2 0x406 DUP2 DUP5 PUSH2 0x383 JUMP JUMPDEST SWAP1 POP SWAP3 SWAP2 POP POP JUMP JUMPDEST PUSH1 0x0 DUP1 REVERT JUMPDEST PUSH1 0x0 DUP1 REVERT JUMPDEST PUSH32 0x4E487B7100000000000000000000000000000000000000000000000000000000 PUSH1 0x0 MSTORE PUSH1 0x41 PUSH1 0x4 MSTORE PUSH1 0x24 PUSH1 0x0 REVERT JUMPDEST PUSH2 0x450 DUP3 PUSH2 0x372 JUMP JUMPDEST DUP2 ADD DUP2 DUP2 LT PUSH8 0xFFFFFFFFFFFFFFFF DUP3 GT OR ISZERO PUSH2 0x46F JUMPI PUSH2 0x46E PUSH2 0x418 JUMP JUMPDEST JUMPDEST DUP1 PUSH1 0x40 MSTORE POP POP POP JUMP JUMPDEST PUSH1 0x0 PUSH2 0x482 PUSH2 0x2A6 JUMP JUMPDEST SWAP1 POP PUSH2 0x48E DUP3 DUP3 PUSH2 0x447 JUMP JUMPDEST SWAP2 SWAP1 POP JUMP JUMPDEST PUSH1 0x0 PUSH8 0xFFFFFFFFFFFFFFFF DUP3 GT ISZERO PUSH2 0x4AE JUMPI PUSH2 0x4AD PUSH2 0x418 JUMP JUMPDEST JUMPDEST PUSH2 0x4B7 DUP3 PUSH2 0x372 JUMP JUMPDEST SWAP1 POP PUSH1 0x20 DUP2 ADD SWAP1 POP SWAP2 SWAP1 POP JUMP JUMPDEST DUP3 DUP2 DUP4 CALLDATACOPY PUSH1 0x0 DUP4 DUP4 ADD MSTORE POP POP POP JUMP JUMPDEST PUSH1 0x0 PUSH2 0x4E6 PUSH2 0x4E1 DUP5 PUSH2 0x493 JUMP JUMPDEST PUSH2 0x478 JUMP JUMPDEST SWAP1 POP DUP3 DUP2 MSTORE PUSH1 0x20 DUP2 ADD DUP5 DUP5 DUP5 ADD GT ISZERO PUSH2 0x502 JUMPI PUSH2 0x501 PUSH2 0x413 JUMP JUMPDEST JUMPDEST PUSH2 0x50D DUP5 DUP3 DUP6 PUSH2 0x4C4 JUMP JUMPDEST POP SWAP4 SWAP3 POP POP POP JUMP JUMPDEST PUSH1 0x0 DUP3 PUSH1 0x1F DUP4 ADD SLT PUSH2 0x52A JUMPI PUSH2 0x529 PUSH2 0x40E JUMP JUMPDEST JUMPDEST DUP2 CALLDATALOAD PUSH2 0x53A DUP5 DUP3 PUSH1 0x20 DUP7 ADD PUSH2 0x4D3 JUMP JUMPDEST SWAP2 POP POP SWAP3 SWAP2 POP POP JUMP JUMPDEST PUSH1 0x0 DUP1 PUSH1 0x40 DUP4 DUP6 SUB SLT ISZERO PUSH2 0x55A JUMPI PUSH2 0x559 PUSH2 0x2B0 JUMP JUMPDEST JUMPDEST PUSH1 0x0 PUSH2 0x568 DUP6 DUP3 DUP7 ADD PUSH2 0x2DB JUMP JUMPDEST SWAP3 POP POP PUSH1 0x20 DUP4 ADD CALLDATALOAD PUSH8 0xFFFFFFFFFFFFFFFF DUP2 GT ISZERO PUSH2 0x589 JUMPI PUSH2 0x588 PUSH2 0x2B5 JUMP JUMPDEST JUMPDEST PUSH2 0x595 DUP6 DUP3 DUP7 ADD PUSH2 0x515 JUMP JUMPDEST SWAP2 POP POP SWAP3 POP SWAP3 SWAP1 POP JUMP JUMPDEST PUSH32 0x4E487B7100000000000000000000000000000000000000000000000000000000 PUSH1 0x0 MSTORE PUSH1 0x22 PUSH1 0x4 MSTORE PUSH1 0x24 PUSH1 0x0 REVERT JUMPDEST PUSH1 0x0 PUSH1 0x2 DUP3 DIV SWAP1 POP PUSH1 0x1 DUP3 AND DUP1 PUSH2 0x5E6 JUMPI PUSH1 0x7F DUP3 AND SWAP2 POP JUMPDEST PUSH1 0x20 DUP3 LT DUP2 SUB PUSH2 0x5F9 JUMPI PUSH2 0x5F8 PUSH2 0x59F JUMP JUMPDEST JUMPDEST POP SWAP2 SWAP1 POP JUMP JUMPDEST PUSH1 0x0 DUP2 SWAP1 POP DUP2 PUSH1 0x0 MSTORE PUSH1 0x20 PUSH1 0x0 KECCAK256 SWAP1 POP SWAP2 SWAP1 POP JUMP JUMPDEST PUSH1 0x0 PUSH1 0x20 PUSH1 0x1F DUP4 ADD DIV SWAP1 POP SWAP2 SWAP1 POP JUMP JUMPDEST PUSH1 0x0 DUP3 DUP3 SHL SWAP1 POP SWAP3 SWAP2 POP POP JUMP JUMPDEST PUSH1 0x0 PUSH1 0x8 DUP4 MUL PUSH2 0x661 PUSH32 0xFFFFFFFFFFFFFFFFFFFFFFFFFFFFFFFFFFFFFFFFFFFFFFFFFFFFFFFFFFFFFFFF DUP3 PUSH2 0x624 JUMP JUMPDEST PUSH2 0x66B DUP7 DUP4 PUSH2 0x624 JUMP JUMPDEST SWAP6 POP DUP1 NOT DUP5 AND SWAP4 POP DUP1 DUP7 AND DUP5 OR SWAP3 POP POP POP SWAP4 SWAP3 POP POP POP JUMP JUMPDEST PUSH1 0x0 DUP2 SWAP1 POP SWAP2 SWAP1 POP JUMP JUMPDEST PUSH1 0x0 PUSH2 0x6A8 PUSH2 0x6A3 PUSH2 0x69E DUP5 PUSH2 0x2BA JUMP JUMPDEST PUSH2 0x683 JUMP JUMPDEST PUSH2 0x2BA JUMP JUMPDEST SWAP1 POP SWAP2 SWAP1 POP JUMP JUMPDEST PUSH1 0x0 DUP2 SWAP1 POP SWAP2 SWAP1 POP JUMP JUMPDEST PUSH2 0x6C2 DUP4 PUSH2 0x68D JUMP JUMPDEST PUSH2 0x6D6 PUSH2 0x6CE DUP3 PUSH2 0x6AF JUMP JUMPDEST DUP5 DUP5 SLOAD PUSH2 0x631 JUMP JUMPDEST DUP3 SSTORE POP POP POP POP JUMP JUMPDEST PUSH1 0x0 SWAP1 JUMP JUMPDEST PUSH2 0x6EB PUSH2 0x6DE JUMP JUMPDEST PUSH2 0x6F6 DUP2 DUP5 DUP5 PUSH2 0x6B9 JUMP JUMPDEST POP POP POP JUMP JUMPDEST JUMPDEST DUP2 DUP2 LT ISZERO PUSH2 0x71A JUMPI PUSH2 0x70F PUSH1 0x0 DUP3 PUSH2 0x6E3 JUMP JUMPDEST PUSH1 0x1 DUP2 ADD SWAP1 POP PUSH2 0x6FC JUMP JUMPDEST POP POP JUMP JUMPDEST PUSH1 0x1F DUP3 GT ISZERO PUSH2 0x75F JUMPI PUSH2 0x730 DUP2 PUSH2 0x5FF JUMP JUMPDEST PUSH2 0x739 DUP5 PUSH2 0x614 JUMP JUMPDEST DUP2 ADD PUSH1 0x20 DUP6 LT ISZERO PUSH2 0x748 JUMPI DUP2 SWAP1 POP JUMPDEST PUSH2 0x75C PUSH2 0x754 DUP6 PUSH2 0x614 JUMP JUMPDEST DUP4 ADD DUP3 PUSH2 0x6FB JUMP JUMPDEST POP POP JUMPDEST POP POP POP JUMP JUMPDEST PUSH1 0x0 DUP3 DUP3 SHR SWAP1 POP SWAP3 SWAP2 POP POP JUMP JUMPDEST PUSH1 0x0 PUSH2 0x782 PUSH1 0x0 NOT DUP5 PUSH1 0x8 MUL PUSH2 0x764 JUMP JUMPDEST NOT DUP1 DUP4 AND SWAP2 POP POP SWAP3 SWAP2 POP POP JUMP JUMPDEST PUSH1 0x0 PUSH2 0x79B DUP4 DUP4 PUSH2 0x771 JUMP JUMPDEST SWAP2 POP DUP3 PUSH1 0x2 MUL DUP3 OR SWAP1 POP SWAP3 SWAP2 POP POP JUMP JUMPDEST PUSH2 0x7B4 DUP3 PUSH2 0x32C JUMP JUMPDEST PUSH8 0xFFFFFFFFFFFFFFFF DUP2 GT ISZERO PUSH2 0x7CD JUMPI PUSH2 0x7CC PUSH2 0x418 JUMP JUMPDEST JUMPDEST PUSH2 0x7D7 DUP3 SLOAD PUSH2 0x5CE JUMP JUMPDEST PUSH2 0x7E2 DUP3 DUP3 DUP6 PUSH2 0x71E JUMP JUMPDEST PUSH1 0x0 PUSH1 0x20 SWAP1 POP PUSH1 0x1F DUP4 GT PUSH1 0x1 DUP2 EQ PUSH2 0x815 JUMPI PUSH1 0x0 DUP5 ISZERO PUSH2 0x803 JUMPI DUP3 DUP8 ADD MLOAD SWAP1 POP JUMPDEST PUSH2 0x80D DUP6 DUP3 PUSH2 0x78F JUMP JUMPDEST DUP7 SSTORE POP PUSH2 0x875 JUMP JUMPDEST PUSH1 0x1F NOT DUP5 AND PUSH2 0x823 DUP7 PUSH2 0x5FF JUMP JUMPDEST PUSH1 0x0 JUMPDEST DUP3 DUP2 LT ISZERO PUSH2 0x84B JUMPI DUP5 DUP10 ADD MLOAD DUP3 SSTORE PUSH1 0x1 DUP3 ADD SWAP2 POP PUSH1 0x20 DUP6 ADD SWAP5 POP PUSH1 0x20 DUP2 ADD SWAP1 POP PUSH2 0x826 JUMP JUMPDEST DUP7 DUP4 LT ISZERO PUSH2 0x868 JUMPI DUP5 DUP10 ADD MLOAD PUSH2 0x864 PUSH1 0x1F DUP10 AND DUP3 PUSH2 0x771 JUMP JUMPDEST DUP4 SSTORE POP JUMPDEST PUSH1 0x1 PUSH1 0x2 DUP9 MUL ADD DUP9 SSTORE POP POP POP JUMPDEST POP POP POP POP POP POP JUMP INVALID LOG2 PUSH5 0x6970667358 0x22 SLT KECCAK256 PUSH1 0xD7 0x2D 0x22 BASEFEE 0xC9 PUSH26 0xF6F85655DE3746DA57087FA77FE7379B4EF0905504E533C6C664 PUSH20 0x6F6C634300081200330000000000000000000000 "
				},
				"gasEstimates": {
					"creation": {
						"codeDepositCost": "445400",
						"executionCost": "480",
						"totalCost": "445880"
					},
					"external": {
						"createWallet(uint256,string)": "infinite",
						"idToWalletName(uint256)": "infinite",
						"wallet(uint256)": "infinite"
					}
				},
				"methodIdentifiers": {
					"createWallet(uint256,string)": "ed7c5462",
					"idToWalletName(uint256)": "b44e6477",
					"wallet(uint256)": "a2781335"
				}
			},
			"storageLayout": {
				"storage": [
					{
						"astId": 10,
						"contract": "contracts/wallet-storage.sol:walletStorage",
						"label": "wallet",
						"offset": 0,
						"slot": "0",
						"type": "t_array(t_struct(Wallet)6_storage)dyn_storage"
					},
					{
						"astId": 14,
						"contract": "contracts/wallet-storage.sol:walletStorage",
						"label": "idToWalletName",
						"offset": 0,
						"slot": "1",
						"type": "t_mapping(t_uint256,t_string_storage)"
					}
				],
				"types": {
					"t_array(t_struct(Wallet)6_storage)dyn_storage": {
						"base": "t_struct(Wallet)6_storage",
						"encoding": "dynamic_array",
						"label": "struct walletStorage.Wallet[]",
						"numberOfBytes": "32"
					},
					"t_mapping(t_uint256,t_string_storage)": {
						"encoding": "mapping",
						"key": "t_uint256",
						"label": "mapping(uint256 => string)",
						"numberOfBytes": "32",
						"value": "t_string_storage"
					},
					"t_string_storage": {
						"encoding": "bytes",
						"label": "string",
						"numberOfBytes": "32"
					},
					"t_struct(Wallet)6_storage": {
						"encoding": "inplace",
						"label": "struct walletStorage.Wallet",
						"members": [
							{
								"astId": 3,
								"contract": "contracts/wallet-storage.sol:walletStorage",
								"label": "walletId",
								"offset": 0,
								"slot": "0",
								"type": "t_uint256"
							},
							{
								"astId": 5,
								"contract": "contracts/wallet-storage.sol:walletStorage",
								"label": "name",
								"offset": 0,
								"slot": "1",
								"type": "t_string_storage"
							}
						],
						"numberOfBytes": "64"
					},
					"t_uint256": {
						"encoding": "inplace",
						"label": "uint256",
						"numberOfBytes": "32"
					}
				}
			},
			"userdoc": {
				"kind": "user",
				"methods": {},
				"version": 1
			}
		}
	}
}